:020000040800F2
:10000000C016002029020008D3120008CF120008F1
:10001000D1120008530600088917000800000000EC
:100020000000000000000000000000009101000836
:100030005506000800000000D501000869150008F9
:10004000430200084302000843020008430200087C
:10005000430200084302000843020008430200086C
:10006000430200084302000843020008430200085C
:10007000430200084302000843020008430200084C
:10008000430200084302000843020008430200083C
:10009000430200084302000843020008430200082C
:1000A000430200084302000843020008430200081C
:1000B0004302000843020008F51500084302000847
:1000C00043020008430200084302000843020008FC
:1000D00043020008430200084302000843020008EC
:1000E00043020008430200084302000800F002F83F
:1000F00000F03FF80AA090E8000C82448344AAF183
:100100000107DA4501D100F034F8AFF2090EBAE880
:100110000F0013F0010F18BFFB1A43F0010318473B
:10012000782D0000982D0000103A24BF78C878C1BF
:10013000FAD8520724BF30C830C144BF04680C60ED
:10014000704700000023002400250026103A28BF35
:1001500078C1FBD8520728BF30C148BF0B60704739
:10016000642900F0C980002070471FB51FBD10B57D
:1001700010BD00F034FA1146FFF7F7FF01F01CFB49
:1001800000F052FA03B4FFF7F2FF03BC00F05AFA92
:10019000224B19680868B0E8F00F80F30988BFF3B4
:1001A0006F8F4FF0000080F311884EF00D0E7047F6
:1001B0000000000006480068006880F3088862B606
:1001C00061B6BFF34F8FBFF36F8F00DF00BF00BF7B
:1001D00008ED00E0EFF30980BFF36F8F0F4B1A6853
:1001E00020E9F00F106008B54FF0500080F311883F
:1001F000BFF34F8FBFF36F8F02F082F84FF0000014
:1002000080F31188BDE8084019680868B0E8F00F6D
:1002100080F30988BFF36F8F704700BF2C00002068
:10022000EFF3058070470000094880470948004700
:10023000FEE7FEE7FEE7FEE7FEE7FEE7FEE7FEE796
:10024000FEE7FEE704480549054A064B70470000F3
:10025000F3150008ED000008C0100020C0160020B3
:10026000C0120020C01200200FB41CB5074B06AA14
:100270007B4469460090059800F099F90020694692
:1002800000F0A8F91CBC5DF814FB0000610300003D
:100290002DE9F0410E460446002020622046E16828
:1002A000884730B3252805D0D4E901219047206A3A
:1002B000401CF2E7E168204600278847050018D077
:1002C000A5F14100192802D820354FF400673246C5
:1002D000294620462760FFF743FF40B1012804D09C
:1002E000F61D26F007060836D8E7361DD6E728465D
:1002F000DAE7206ABDE8F0812DE9F04106460024E6
:1003000010687529314616A510D0AFF3008000287B
:1003100002DA404213A507E031688A0701D512A529
:1003200002E0490704D511A5012401E0AFF30080E4
:1003300000210A2206F1240709E0B0FBF2FCB0FB21
:10034000F2F302FB1C00303078541846491C002898
:10035000F3D123462A463046BDE8F04100F0C8B844
:10036000000000002D0000002B0000002000000015
:1003700010B5431C02E010F8011B71B18107FAD1DE
:100380004FF0013202C88C1A8C4314EAC211F9D022
:10039000C01A0A0603D0C01E10BDC01A10BD0A0440
:1003A00001D0801E10BD0902FCD0401E10BD032AE2
:1003B00040F2308010F0030C00F0158011F8013B82
:1003C000BCF1020F624498BF11F801CB00F8013B69
:1003D00038BF11F8013BA2F1040298BF00F801CB2D
:1003E00038BF00F8013B11F0030300F02580083A04
:1003F000C0F0088051F8043B083A51F804CBA0E85B
:100400000810F5E7121D5CBF51F8043B40F8043BAF
:10041000AFF30080D20724BF11F8013B11F801CBE4
:1004200048BF11F8012B24BF00F8013B00F801CBB5
:1004300048BF00F8012B704710B5203AC0F00B8080
:10044000B1E81850203AA0E81850B1E81850A0E8D8
:100450001850BFF4F5AF5FEA027C24BFB1E8185032
:10046000A0E8185044BF18C918C0BDE810405FEAA2
:10047000827C24BF51F8043B40F8043B08BF70471E
:10048000D20728BF31F8023B48BF11F8012B28BF23
:1004900020F8023B48BF00F8012B70474FF00002E4
:1004A00000B5134694469646203922BFA0E80C506A
:1004B000A0E80C50B1F12001BFF4F7AF090728BF45
:1004C000A0E80C5048BF0CC05DF804EB890028BFC1
:1004D00040F8042B08BF704748BF20F8022B11F0EA
:1004E000804F18BF00F8012B704770477047704766
:1004F0002DE9F0470D4699469246044600F124083E
:100500000168880604D5E06921F01001216000E04F
:100510000120A84201DD471B00E00027A1697A19EC
:1005200002EB0900081AA0612078C00602D4204618
:10053000AFF30080002608E0D4E901211AF8060094
:100540009047206A401C761C20624E45F4DB2078E0
:10055000C0060AD52046AFF3008006E0D4E90121A9
:1005600030209047206A401C2062381EA7F1010706
:10057000F4DC07E0D4E9012118F805009047206A6F
:10058000401C2062281EA5F10105F3DC2046AFF3D4
:1005900000802078000602D50220BDE8F087012007
:1005A000FBE7000001694A1C02610878704700B54A
:1005B0008FB0CDE901310021059105497944CDE99C
:1005C000031011466846FFF763FE0FB000BD000040
:1005D000E5FFFFFF0A6802F8010B0A6070477546E5
:1005E00000F02CF8AE4605006946534620F007009F
:1005F000854618B020B5FFF725FEBDE820404FF036
:1006000000064FF000074FF000084FF0000B21F0FC
:100610000701AC46ACE8C009ACE8C009ACE8C009C9
:10062000ACE8C0098D46704710B50446AFF30080B2
:100630002046BDE81040FFF7A5BD00000048704708
:100640005C10002001491820ABBEFEE72600020026
:100650007047FEE7704700002DE9F84FDFF8B891CA
:10066000002409F1040A0AF1040B23460F270BF1B9
:10067000040EC9E00125A5402A40AA427DD1674E5B
:10068000D1F804C0ACEB0608B44532D014DCBCF1A0
:10069000030F3AD009DCBCF1000F2AD0BCF1010FE6
:1006A0001CD0BCF1020F31D11DE0BCF1110F17D0ED
:1006B000BCF1120F2AD119E0B8F5881F19D006DC59
:1006C000B8F5803F15D0B8F5801F1FD111E0B8F5FF
:1006D000001F0ED0B8F5041F18D10AE0CB6815E052
:1006E000CB681B1D12E0CB6808330FE0CB680C33DE
:1006F0000CE08B682BB1012B4FF0080303D0456150
:1007000004E0042302E0056100E00023FF2A01D891
:10071000064601E000F104064FEA840501D9A5F17F
:100720002005D6F8008007FA05FC28EA0C0803FA31
:1007300005F548EA0508C6F800804D68ED0062D569
:10074000374DAE6946F00106AE61AD6924F003068F
:1007500005F001050095334D06EB050CDCF808505B
:10076000A607360F07FA06F825EA0805DFF8B8806D
:10077000404503D14FF0000817E044E0DFF8AC80BB
:10078000404502D14FF001080FE0DFF8A48040455A
:1007900002D14FF0020808E0DFF89880404502D10E
:1007A0004FF0030801E04FF0040808FA06F848EAA1
:1007B0000508CCF808804D68D9F80060ED034D4677
:1007C00001D5164300E096432E604D68DAF80060CC
:1007D000AD03554601D5164300E096432E604D68A3
:1007E000DBF80060ED025D4601D5164300E096435C
:1007F0002E604D68DEF80060AD02754601D51643E7
:1008000000E096432E60641C0D682A46E5407FF4A4
:1008100031AFBDE8F88F0000000401400000111066
:10082000001002400000014000080140000C01409F
:10083000001001400014014001488068704700002A
:100840001C000020024881680278114481607047D2
:100850001C000020074810B5016841F0100101603C
:10086000032000F0A7F80F2000F006F800F050F881
:10087000002010BD0020024030B505461F4887B05B
:10088000C16941F00401C161C06906A900F004001A
:10089000009001A800F036F90498B0B100F052F9C8
:1008A00040001749174AB0FBF1F11748491E026092
:1008B000416040F2E7320021C0E90321816081619B
:1008C00000F028FB040003D015E000F03BF9E8E756
:1008D0000D4800F04DFB04000DD11E2000F03CF847
:1008E000102D07D2002229461E2000F043F80748A9
:1008F000056000E0012407B0204630BD0010024032
:1009000040420F0000080040240300202000002087
:100910000F4808B5816941F001018161816901F0E9
:1009200001010091C16941F08051C161C06900229B
:1009300000F0805000900F21901E00F01BF8054839
:10094000416821F0E06141F00071416008BD0000A4
:100950000010024000000140002809DB00F01F02E7
:10096000012191404009800000F1E020C0F8001111
:1009700070470000F0B40E4B1B680C46C3F3022313
:10098000C3F10705042D00D90425191D072901D23B
:10099000002300E0DB1E012606FA05F1491E214076
:1009A00099409E40761E16403143F0BC00F0EDBEEB
:1009B0000CED00E0064900F0070208684FF6FF035F
:1009C000184040EA0220034A1043086070470000C4
:1009D0000CED00E00000FA052DE9F0470F46050098
:1009E00061D0434E306800F00700B84209D2306849
:1009F00020F0070038433060306800F00700B8424C
:100A000051D128683B4C810712D5400703D5606857
:100A100040F4E06060602878000703D5606840F427
:100A2000605060606068A96820F0F0000843606072
:100A30002878C00728D06868012810D021680228CB
:100A400010D0890700292EDA616821F003010143E3
:100A50006160FFF7F1FE804641F288390DE02168C0
:100A60008903EFE78901EDE7FFF7E6FEA0EB080158
:100A7000494502D90320BDE8F0876068696800F045
:100A80000C00B0EB810FEFD1306800F00700B842E6
:100A90000BD9306820F0070038433060306800F030
:100AA0000700B84201D00120E5E72878400705D5C6
:100AB0006068E96820F4E060084360602878000717
:100AC00006D56068296920F4605040EAC100606082
:100AD00000F058F86168084AC1F30311515CC8403E
:100AE0000649086006480068FFF7C6FE0020C2E716
:100AF0000020024000100240582E0008280000206C
:100B0000200000200F2202600C4A536803F0030308
:100B10004360536803F0F0038360536803F4E063B9
:100B2000C36052684FF4E06303EAD20202610448F2
:100B3000006800F0070008607047000000100240E5
:100B4000002002400448054900684968044AC1F38E
:100B50000221515CC840704728000020001002406C
:100B6000682E00080448054900684968044AC1F332
:100B7000C221515CC840704728000020001002408C
:100B8000682E000812A185B00FC98DE80F0014A0CF
:100B9000144A006804905168134801F00C03042BB8
:100BA00010D0082B0ED1C1F38343C9031DF80300F5
:100BB0000AD5516804AAC1F34041515C0A4A504326
:100BC000B0FBF1F005B0704708494843FAE7000070
:100BD00002030405060708090A0B0C0D0E0F10107E
:100BE000010200000010024000127A0000093D00DE
:100BF0002DE9F84F040070D02078C04DC00749D0CF
:100C00006868C0F38100012807D06868C0F38100DC
:100C1000022809D16868C00306D52868800339D541
:100C200060680028E7D035E06068B0F5803F0BD001
:100C300010B1B0F5A02F11D0286820F480302860C2
:100C4000286820F4802002E0286840F48030286082
:100C5000606890B1FFF7F0FD06460AE0286840F4AE
:100C600080202860F0E700BFFFF7E6FD801B6428C6
:100C700073D828688003F7D50CE0FFF7DDFD064642
:100C800005E000BFFFF7D8FD801B6428F0D8286876
:100C90008003F7D420789A4E80074FF001094FF077
:100CA000000839D5686810F00C0F07D06868C0F3E9
:100CB0008100022809D16868C00306D4286880072B
:100CC00014D52069012808D110E02069B0B1C6F818
:100CD0000090FFF7B1FD074605E00AE1FFF7ACFD24
:100CE000C01B0228C4D828688007F7D52868616926
:100CF00020F0F80040EAC10028600DE0C6F800804E
:100D0000FFF79AFD074604E0FFF796FDC01B022897
:100D100023D828688007F7D4207800072CD5794895
:100D2000A169D9B1C0F80090FFF786FD074604E03D
:100D3000FFF782FDC01B02280FD8686A8007F7D52D
:100D400071484FF4FA510068B0FBF1F0009000BF19
:100D50000098411E0091FAD20EE080E0C0F80080B9
:100D6000FFF76AFD074604E0FFF766FDC01B022897
:100D700075D8686A8007F7D42078400760D5E8699D
:100D80000027C00008D4E86940F08050E861E869B5
:100D9000012700F0805000905C480168C90513D419
:100DA0000168834641F480710160FFF745FD82468A
:100DB00006E000BFFFF740FDA0EB0A0064284ED814
:100DC000DBF80000C005F5D5E06801280AD008B1BD
:100DD000052813D0286A20F001002862286A20F034
:100DE000040002E0286A40F001002862E06841F255
:100DF000883B98B1FFF720FD82460BE0286A40F05F
:100E000004002862EEE700BFFFF716FDA0EB0A0121
:100E100059455AD8286A8007F6D50CE0FFF70CFD33
:100E2000824605E0FFF708FDA0EB0A0159454CD8C2
:100E3000286A8007F6D41FB1E86920F08050E86185
:100E4000E06988B36968C1F38101022944D00228AE
:100E5000C6F8608004D0FFF7EFFC044638E034E0C9
:100E6000FFF7EAFC074604E0FFF7E6FCC01B022898
:100E70002BD828688001F7D4206AB0F5803F05D1CF
:100E80006868A16820F4003008436860D4E908016C
:100E90000843696821F4741108436860C6F86090DB
:100EA000FFF7CAFC044606E025E000BFFFF7C4FCDC
:100EB000001B022809D828688001F7D51BE000BF75
:100EC000FFF7BAFC001B022802D90320BDE8F88F07
:100ED00028688001F4D40EE00128F7D06868226AFF
:100EE00000F48031914204D1616A00F470108842AC
:100EF00001D00120EAE70020E8E7000000100240EE
:100F0000000042428004424228000020007000405D
:100F10007047704710B5040003D094F83D0010B13D
:100F200007E0012010BD002084F83C00204600F0BE
:100F30001EF8022084F83D00211D206800F060FBAF
:100F4000012084F8460084F83E0084F83F0084F8CD
:100F5000400084F8410084F8420084F8430084F89B
:100F6000440084F8450084F83D00002010BD70471F
:100F700090F83D10012901D001207047022180F82E
:100F80003D100168CA6842F00102CA6000680B495E
:100F9000884208D0B0F1804F05D00949884202D07C
:100FA0000849884204D1816801F00701062903D06D
:100FB000016841F00101016000207047002C0140F0
:100FC0000004004000080040704770B50446006807
:100FD00001694FF00005C943890715D4C168C943A9
:100FE000890711D4E91E01610120207720688069FA
:100FF0008007204602D0FFF7E7FF04E000F098F8F2
:10100000204600F096F8257720680169C943490712
:1010100017D4C168C943490713D46FF004010161B3
:10102000022020772068806910F4407F204602D09B
:10103000FFF7CAFF04E000F07BF8204600F079F8E3
:10104000257720680169C943090716D4C168C943D7
:10105000090712D46FF0080101610420207720688D
:10106000C0698007204602D0FFF7AEFF04E000F021
:101070005FF8204600F05DF8257720680169C943D4
:10108000C90617D4C168C943C90613D46FF010014B
:101090000161082020772068C06910F4407F204655
:1010A00002D0FFF791FF04E000F042F8204600F084
:1010B00040F8257720680169C943C90708D1C1688C
:1010C000C943C90704D1891E0161204600F032F8E6
:1010D00020680169C943090609D4C168C9430906E2
:1010E00005D46FF0800101612046FFF711FF2068F1
:1010F0000169C943490609D4C168C943490605D4F1
:101100006FF040010161204600F01EF8206801697F
:10111000C94389060BD4C168C943890607D46FF057
:10112000200101612046BDE87040FFF7F2BE70BDAE
:101130007047704700680349884201D1FFF782BBBE
:101140007047000000080040704770B5040004D0EC
:1011500094F83D00002510B106E0012070BD84F830
:101160003C50204600F022F8242084F83D002068FE
:10117000C16821F40051C160204600F077FA206870
:10118000016921F4904101612068416921F02A013F
:1011900041612068C16841F40051C160256420208C
:1011A00084F83D0084F83E00002070BD30B585B065
:1011B0000024009401940294039400681449884226
:1011C00023D11448C16941F40031C161C16901F4FE
:1011D00000310491816941F00401816180690E4D03
:1011E00000F00400049004200090022001900320ED
:1011F000039069462846FFF72FFA0820CDE900043E
:10120000694628460294FFF727FA05B030BD000072
:101210000044004000100240000801402DE9F8435E
:10122000044690F83D001F4616460D4620284CD136
:10123000C5B1BEB194F83C00012846D0012084F825
:101240003C004FF00008C4F84080212084F83D00A5
:10125000FFF7F2FAA6848146E684A068B0F5805FC5
:1012600003D004E00120BDE8F883206928B12E46B0
:101270005FF0000584F83C800EE00026FAE780214C
:10128000204600F04FFAA0B9AEB116F8010B216864
:101290004860E08C401EE084E08C4B464FF000023A
:1012A00000970028EBD14FF04001204600F03AFAB9
:1012B00030B10320D7E735F8020BC0F30800E6E7AA
:1012C000202084F83D000020CDE70220CBE7FEE798
:1012D000FEE7FEE794B000256F1E224C4EF6602814
:1012E00000F0DAFA06463946A06900F011FB2B46F9
:1012F0001DA168462268FEF7B7FF6846FFF738F879
:1013000082B20A2369462448FFF788FF2B4623A1AF
:1013100068466268FEF7A8FF6846FFF729F882B2C0
:101320000A2369461C48FFF779FF00F0B5FAA16867
:10133000801B42182B4625A16846A260FEF794FF49
:101340006846FFF715F882B20A2369461248FFF78C
:1013500065FF6D1CA06900F0B3FA404600F090FAFA
:10136000BEE70000000000204E6F726D616C2054DB
:1013700061736B2031206578637574696F6E2074BA
:10138000696D6520256420696E202564206D696E75
:101390007574650A000000008C0000204E6F726DAD
:1013A000616C205461736B203220657863757469B9
:1013B0006F6E2074696D6520256420696E20256438
:1013C000206D696E7574650A0000000041626F76D9
:1013D00065205461736B206578637574696F6E2046
:1013E00074696D6520256420696E202564206D690F
:1013F0006E7574650A00000094B01A4C4FF0FF3609
:101400004FF47A773146A06900F082FA00F044FA8E
:101410000546024614A16846FEF726FF6846FEF719
:10142000A7FF82B20A2369461748FFF7F7FE00F0CC
:1014300033FA2168401B421814A168462260FEF767
:1014400013FF6846FEF794FF82B20A2369460E48EE
:10145000FFF7E4FEA06900F033FA384600F010FA16
:10146000D0E70000000000204E6F726D616C2074A8
:1014700061736B2031207374617274206174202554
:1014800064206D730A0000008C0000204E6F726DA6
:10149000616C207461736B20312072756E6E696EA1
:1014A000672074696D65202564206D730A00000053
:1014B00094B01A4C4FF0FF364FF47A773146A0695A
:1014C00000F026FA00F0E8F90546024614A1684645
:1014D000FEF7CAFE6846FEF74BFF82B20A23694652
:1014E0001748FFF79BFE00F0D7F96168401B4218D0
:1014F00014A168466260FEF7B7FE6846FEF738FF43
:1015000082B20A2369460E48FFF788FEA06900F000
:10151000D7F9384600F0B4F9D0E700000000002009
:101520004E6F726D616C207461736B203220737426
:10153000617274206174202564206D730A000000BC
:101540008C0000204E6F726D616C207461736B2093
:10155000322072756E6E696E672074696D65202524
:1015600064206D730A00000010B5502080F31188CC
:10157000BFF34F8FBFF36F8F01F0AEFA18B104497C
:101580004FF080500860002080F3118810BD0000EB
:1015900004ED00E030B58FB028216846FEF77EFFED
:1015A00014210AA8FEF77AFF01210804CDE90010F2
:1015B0000024029402250491CDE907504FF4E01075
:1015C00009906846FFF714FB08B172B6FEE70F20DA
:1015D000CDE90A054FF48060CDE90C4002210AA84C
:1015E0000E94FFF7F9F9002801D072B6FEE70FB0AC
:1015F00030BD70470148FFF7E8BC0000240300201D
:10160000F0B50268164B174C174D4FF080479842C3
:1016100005D0B84203D0A04201D0A84203D122F0A5
:1016200070064A683243984205D0B84203D0A042BF
:1016300001D0A84203D122F44074CA6822434C6905
:1016400022F08002224302608A68C2620A688262D3
:10165000984201D10969016301214161F0BD000097
:10166000002C0140000400400008004070B5044612
:1016700000680169E26821F4405111430161216968
:10168000A0680843616908432168CA6841F20C6395
:101690009A430243CA6020684169A26921F44071FB
:1016A000114341611E492068884202D1FFF75AFA6E
:1016B00001E0FFF747FA00EBC00101EB00126068A0
:1016C00064218000B2FBF0F3B3FBF1F36FF0180676
:1016D0007343B2FBF0F5B2FBF0F605EB8305322362
:1016E00003EB0515B5FBF1F5B6FBF1F605F0F005DA
:1016F00005EB0615B2FBF0F6B2FBF0F0B0FBF1F033
:101700006FF01802504306EB800003EB0010B0FBB3
:10171000F1F0216800F00F002844886070BD0000DF
:10172000003801402DE9F041984617460E46044620
:10173000069D1DE0681C1BD02DB1FFF77DF8A0EBC6
:101740000800A84214D92068C16821F4D071C16092
:101750002068416921F001014161202084F83D00A9
:1017600084F83E00002084F83C000320BDE8F081AE
:101770002068006836EA000004D00020B842D9D0C2
:101780000020F3E70120F9E7FEE70907090E00282A
:1017900004DB00F1E02080F80014704700F00F0037
:1017A00000F1E02080F8141D7047EFF30580002859
:1017B00000D001207047000098B0FFF74BF8FFF70A
:1017C000E9FE2748816941F020018161816901F0CA
:1017D00020011791816941F00401816180692149EB
:1017E00000F0040017902048002401604FF4E1311C
:1017F000C0E901140C21C460C0E904418461C461E2
:10180000FFF7A3FC08B172B6FEE7159415A816946D
:1018100000F04EF8154C1C221549A0616846FEF7F1
:101820000BFE0021684600F0A5F81149E0601C227B
:101830001C3107A8FEF700FE002107A800F09AF867
:101840000B4920611C2238310EA8FEF7F5FD00215E
:101850000EA800F08FF8606100F019F8FEE70000B4
:1018600000100240004400408C00002000000020D6
:10187000042E000801460020842900D0C81C7047AF
:1018800010B500B9012000F05DFC002010BD10B5BE
:1018900000F0F8FC002010BD10B5FFF786FF18B16E
:1018A000BDE8104001F010B9BDE8104001F006B9E4
:1018B00041684FF0010009B100F0AFBD00F0A2BDDA
:1018C00038B5002405460094FFF76FFF90B16946D4
:1018D000284600F0FBFE012801D0FF2038BD00980B
:1018E00088B10A494FF080500860BFF34F8FBFF3B3
:1018F0006F8F08E000231A461946284600F036FE8E
:10190000012800D0FF24204638BD000004ED00E08F
:1019100038B505004FF0000000900FD00024481C9F
:101920000ED001B10C46FFF740FFB8B16A46002166
:10193000284600F019FF012816D104E0802038BDA8
:101940004FF0FF34EFE7009880B109494FF0805025
:101950000860BFF34F8FBFF36F8F07E02146284623
:1019600000F050FF012801D0FF2038BD002038BD15
:1019700004ED00E07FB50D4604464169B0F908006A
:1019800081B1A16971B1FFF775FFD4E905128DE846
:101990000700D4E900102B46226901F056F80390A5
:1019A00004B070BDFFF766FF03A9CDE90001208AEE
:1019B0002B4682B2D4E9001001F01AF8012801D0B8
:1019C0000020EDE70398EBE72DE9F041184C0F46B6
:1019D000054666692068001D00F0C6FA38B920681F
:1019E00090F82C1001208840A1698143A161681CF6
:1019F00007D137B12168BDE8F0410E48091D00F05C
:101A0000F7BA20683544B5424560216805D2A06820
:101A1000BDE8F041091D00F0D3BA6068091D00F06F
:101A2000CFFA206B854200D22563BDE8F08100002B
:101A30002C000020480400202DE9F041054600F06C
:101A4000E3FA2E4C2069401C206120682C4F10B115
:101A5000E06940B32DE025602069012829D10026E6
:101A600006EB860007EB800000F09CFA761C072E40
:101A7000F6D323488C3000F095FA2148A03000F0CE
:101A800091FA1F48B43000F08DFA1D48C83000F0BC
:101A900089FA1B48DC3000F085FA19488C30606008
:101AA0001430A06005E02068E96AC06A884200D866
:101AB0002560E06A401CE062E96A0120A269884072
:101AC0001043A06101EB810007EB8000291D00F0AD
:101AD0008FFA00F0B9FAE06900280CD02068E96AB2
:101AE000C06A884207D207494FF080500860BFF3B0
:101AF0004F8FBFF36F8FBDE8F08100002C000020F6
:101B00006C03002004ED00E030B4026C0B46002AA8
:101B10000BD0C1681144C1604468A14201D301687F
:101B2000C16030BC1846FEF742BC30BC70472DE99E
:101B3000F041856B174604460026026C82B1C7B19E
:101B4000E068FEF734FCE168206C091AE160226865
:101B5000914202D26168081AE060022F16D017E0A5
:101B60002068A8B9606801F01BF806460020606094
:101B70000EE0A068FEF71BFC216CA0680844A06082
:101B80006168884204D32068A06001E005B16D1E41
:101B90006D1CA5633046BDE8F08110B5044690F891
:101BA000510058B101280CD002280FD0502080F3EA
:101BB0001188BFF34F8FBFF36F8FFEE7206B00F0EC
:101BC00057FA2046BDE8104000F052BA10BD0000A0
:101BD00010484FF44061420706D0C01D0D4920F067
:101BE0000700411AC1F540610B4A00230144C2E9D4
:101BF00000030839103A21F0070111604B600B60B7
:101C00000B1AC0E9001393604FF000405360D0609E
:101C1000704700005C04002078000020144E154C32
:101C2000A6F1C8074FF08058DFF84C9012E000BFD3
:101C300000F0EAF9F068C568281D00F095F9206900
:101C4000401E2061E068401EE06000F0FDF928467B
:101C5000FFF7A3FFE0680028EAD138680128F9D926
:101C6000C9F80080BFF34F8FBFF36F8FF2E700001A
:101C7000340400202C00002004ED00E0002807D0F0
:101C80000021416001600B460A46C16000F06EBC55
:101C900070470346009829B10260C0E90F31012165
:101CA00000F020BC0060F8E72DE9F0479A46DDE936
:101CB000098481466FF00303206B03EB820210441A
:101CC000089D20F00706700707D0502080F3118888
:101CD000BFF34F8FBFF36F8FFEE723180A5C83F8C3
:101CE00034200A5C12B1401C1028F6D3002784F877
:101CF0004370072D00D30625E562C4E91157201D66
:101D000000F05BF904F1180000F057F92461C5F107
:101D100007006462A061E76484F850705246494647
:101D2000304600F00FF92060B8F1000F01D0C8F87C
:101D30000040BDE8F087000030B5114900E01146D1
:101D40000A688242FBD34B685C18844203D1406826
:101D500018444860084643681C18944209D1084C4E
:101D6000103C2468A24209D052681A4442600A68B2
:101D700012680260814200D0086030BD0460F9E75B
:101D80007800002010B5044600F03EF9A06B28B1A1
:101D90005FF0000400F058F9204610BD0124F9E777
:101DA00006484168096829B14168C968C968496835
:101DB000016370474FF0FF31FAE700002C0000206C
:101DC00008484068401C4FF0500080F3118804D050
:101DD000BFF34F8FBFF36F8FFEE7BFF34F8FBFF39C
:101DE0006F8FFEE7800000202DE9F041044600F0EF
:101DF0000BF994F9455004F1240609E0606A48B1F2
:101E0000304600F063FF08B100F0CAF96D1E6DB2F4
:101E1000002DF3DC4FF0FF3684F8456000F014F934
:101E200000F0F2F894F9445004F1100709E0206939
:101E300048B1384600F04AFF08B100F0B1F96D1E14
:101E40006DB2002DF3DC84F84460BDE8F04100F091
:101E5000FBB800002DE9F0410546002700F048FAE4
:101E6000314E306808B9FFF7B3FEF06805424BD138
:101E7000C5B3083568070ED005F00700C0F10800AB
:101E80000544680707D0502080F31188BFF34F8FB7
:101E9000BFF36F8FFEE72DB37068854234D82248B8
:101EA000103001460C6801E020460C466168A942EA
:101EB00002D221680029F7D131688C4224D007680A
:101EC0002168016060680837411B10290FD960192B
:101ED000420708D0502080F31188BFF34F8FBFF323
:101EE0006F8FFEE710E041606560FFF725FF6168D6
:101EF0007068401A7060B268904200D2B060F068BA
:101F000001430020C4E9000100F01AFF780707D060
:101F1000502080F31188BFF34F8FBFF36F8FFEE720
:101F20003846BDE8F08100006800002004490868D8
:101F300018B10868826C521C8264086870470000FF
:101F40002C00002010B5031F4FF080741C601B1F75
:101F500021F001011960191F024B0B601439403840
:101F60000A6010BDC11D0008D0E9013201699A6004
:101F7000D0E901235A604A68824201D182684A60EE
:101F8000002202610868401E08600868704700006F
:101F9000034B036003F15400086080201060704719
:101FA000D000002000F108014FF0FF32C0E901121B
:101FB000C16001610021016070470021016170472B
:101FC00030B50B685A1C02D000F1080202E0026929
:101FD00004E02246546825689D42FAD953684B6054
:101FE00099608A60516008610168491C016030BDD8
:101FF00042684A6093688B60936859609160086199
:102000000168491C01607047502080F31188BFF3BC
:102010004F8FBFF36F8F0A494868401C4860012802
:102020000CD10848006810F0FF0F07D0502080F353
:102030001188BFF34F8FBFF36F8FFEE7704700002B
:102040008000002004ED00E00849486828B1401EE7
:10205000486001D180F311887047502080F31188C7
:10206000BFF34F8FBFF36F8FFEE7000080000020AB
:1020700070B5002827D0144DA0F108046168E86805
:10208000014207D1502080F31188BFF34F8FBFF377
:102090006F8FFEE722683AB1502080F31188BFF3BA
:1020A0004F8FBFF36F8FFEE78143616000F020F92F
:1020B00060686968084468602046FFF73DFEBDE837
:1020C000704000F03DBE70BD680000204FF0E02081
:1020D00000210161816105494FF47A720968B1FB01
:1020E000F2F1491E4161072101617047280000207B
:1020F00010B5FEF795F8114910280ED300F1E02035
:1021000090F8F0030A78904207D2502080F31188AB
:10211000BFF34F8FBFF36F8FFEE7094800688968F0
:1021200000F4E060884207D9502080F31188BFF3A3
:102130004F8FBFF36F8FFEE710BD000080000020BF
:102140000CED00E010B5020014D00F48806B38B1E0
:10215000502080F31188BFF34F8FBFF36F8FFEE7DE
:1021600000F0C6F800211046FFF72EFC00F0E8FD55
:10217000002807D105494FF080500860BFF34F8F0A
:10218000BFF36F8F10BD00002C00002004ED00E0B5
:1021900002498A6A02604969416070472C00002048
:1021A00001490120486270472C00002010B50C4600
:1021B00050B1094909681831FFF702FF2046BDE810
:1021C00010400121FFF700BC502080F31188BFF3BD
:1021D0004F8FBFF36F8FFEE72C00002070B5040017
:1021E0004BD0A26CA2B1606C884200D30146E06A79
:1021F000884242D0012A40D1204D2A6894420FD112
:10220000502080F31188BFF34F8FBFF36F8FFEE72D
:10221000502080F31188BFF34F8FBFF36F8FFEE71D
:10222000E162A269002A02DBC1F10701A161144E3B
:1022300000EB8000616906EB800081421DD1201D0A
:10224000FFF792FE012150B9E06A00EB800256F8D8
:10225000222022B9AA6901FA00F08243AA61E06A49
:10226000AA6981401143A96100EB800006EB800060
:10227000211DBDE87040FFF7BBBE70BD2C000020E3
:102280006C03002010B586B00024039405AA04A9AD
:1022900003A80494FFF77CFEDDE903010094CDE977
:1022A000011000230EA11048059A00F0CEFB0F4943
:1022B0000028486311D0502080F31188BFF34F8F5E
:1022C000BFF36F8F4FF0FF3008630120C8614C618E
:1022D00006B0BDE8104000F041B806B010BD0000E7
:1022E00049444C45000000001D1C00082C00002043
:1022F0000248816B491C8163704700002C0000205C
:102300001448816B11B10121416270470021416283
:102310008169B1FA81F1C1F11F0101EB81020E491E
:1023200051F822306BB101EB820101F108034A68D8
:1023300052684A609A4201D152684A60D16801608D
:102340007047502080F31188BFF34F8FBFF36F8F1A
:10235000FEE700002C0000206C0300201CB526497D
:1023600008780190FF20087008788DF800009DF82B
:1023700000009DF8002000F0F000904207D05020AF
:1023800080F31188BFF34F8FBFF36F8FFEE79DF887
:1023900000001A4B00F0500018700720986005E00C
:1023A0009DF8002052008DF80020401E9DF800206E
:1023B0001206F5D49860032807D0502080F31188C6
:1023C000BFF34F8FBFF36F8FFEE74FF440709860FD
:1023D000019808700A48016841F4700101600168C1
:1023E00041F070410160FFF771FE00205860FDF779
:1023F000E1FE00201CBD000000E400E080000020A1
:1024000020ED00E010B502460021012000F012F896
:102410000446FFF733FC204610BD38B50B460022BA
:1024200000901146012000F029F80446FFF726FC31
:10243000204638BDF8B517460E46050014D0DEB16B
:1024400005FB06F04830FFF705FD04000AD0002028
:1024500084F8460004F148023B4631462846009481
:10246000FFF717FC2046F8BD502080F31188BFF31A
:102470004F8FBFF36F8FFEE70020E3E738B5049D71
:1024800018B153B1CAB181B120E0502080F3118856
:10249000BFF34F8FBFF36F8FFEE7502080F311889B
:1024A000BFF34F8FBFF36F8FFEE7502080F311888B
:1024B000BFF34F8FBFF36F8FFEE739B1502080F32A
:1024C0001188BFF34F8FBFF36F8FFEE748241C4680
:1024D000012384F846302B460094FFF7DAFB2046B0
:1024E00038BD000070B50D46040025D0FFF78CFD07
:1024F000D4E90F20216802FB001161600021A16373
:102500002168A1600A46D4E90F01401E00FB0121A9
:10251000E16021464FF0FF3001F8440F487004F1AC
:1025200010008DB1FFF73EFD04F12400FFF73AFDE6
:10253000FFF78AFD012070BD502080F31188BFF3A2
:102540004F8FBFF36F8FFEE721690029F0D000F0B5
:10255000BDFB0028ECD004494FF080500860BFF369
:102560004F8FBFF36F8FE3E704ED00E02DE9FF47E6
:1025700082B01D468A464FF00008040003D0BAF12D
:10258000000F08D011E0502080F31188BFF34F8F67
:10259000BFF36F8FFEE7206C38B1502080F31188B5
:1025A000BFF34F8FBFF36F8FFEE7022D0AD1E06BB1
:1025B000012807D0502080F31188BFF34F8FBFF35D
:1025C0006F8FFEE700F06CFA3F4F4FF000094FF0BD
:1025D000805648B9049838B1502080F31188BFF371
:1025E0004F8FBFF36F8FFEE7FFF70EFDA06BE16B20
:1025F000884207D3022D05D00498D0B1B8F1000F5E
:102600001AD01EE02A4651462046FFF790FA616A2A
:1026100019B104F1240000F059FB20B13E60BFF372
:102620004F8FBFF36F8FFFF70FFD012006B0BDE89E
:10263000F087FFF709FD22E06846FFF7A9FD4FF09C
:102640000108FFF701FDFFF753FEFFF7DDFC94F9EA
:102650004400401C01D184F8449094F94500401C8A
:1026600001D184F84590FFF7EFFC04A9684600F01B
:1026700085F930B12046FFF7B7FB00F061FB002081
:10268000D4E7FFF7C1FCA06BE16B884213D1FFF7E1
:10269000DBFC04F110000499FFF788FD2046FFF7EA
:1026A000A3FB00F04DFB00289ED13E60BFF34F8F8F
:1026B000BFF36F8F98E7FFF7C7FC2046FFF794FB47
:1026C00000F03EFB90E7000004ED00E070B50E4620
:1026D000040009D0206C78B1502080F31188BFF33A
:1026E0004F8FBFF36F8FFEE7502080F31188BFF349
:1026F0004F8FBFF36F8FFEE7206848B9606838B12D
:10270000502080F31188BFF34F8FBFF36F8FFEE728
:10271000FFF7EEFC5020EFF3118580F31188BFF333
:102720004F8FBFF36F8FA16BE06B884218D994F97C
:102730004500491CA163411C04D0401C84F845009D
:1027400001200EE0606A0028FAD004F1240000F0B5
:10275000BDFA0028F4D0002EF2D001203060EFE75F
:10276000002085F3118870BD2DE9F0479046894619
:10277000040003D0B9F1000F08D011E0502080F31D
:102780001188BFF34F8FBFF36F8FFEE7206C38B116
:10279000502080F31188BFF34F8FBFF36F8FFEE798
:1027A000FFF7A6FC5020EFF3118680F31188BFF3EA
:1027B0004F8FBFF36F8FA76BF7B194F94450494621
:1027C0002046FFF7A1F97F1EA763681C04D06D1C8B
:1027D00084F84450012010E020690028FAD004F168
:1027E000100000F073FA0028F4D0B8F1000FF1D017
:1027F0000121C8F80010EDE7002086F31188BDE83C
:10280000F08700002DE9F343002683B0040035462D
:1028100009D0206C78B1502080F31188BFF34F8F1E
:10282000BFF36F8FFEE7502080F31188BFF34F8F07
:10283000BFF36F8FFEE700F033F9DFF83C814FF014
:1028400000094FF0805748B9049838B1502080F300
:102850001188BFF34F8FBFF36F8FFEE7FFF7D4FBF5
:10286000A06BC8B1401EA063206810B9FFF75EFBE3
:102870006060206950B104F1100000F027FA28B11F
:10288000C8F80070BFF34F8FBFF36F8FFFF7DCFB0B
:10289000012005B0BDE8F083049808B166B10FE0EF
:1028A0003DB1502080F31188BFF34F8FBFF36F8F7E
:1028B000FEE7FFF7C9FB5DE06846FFF769FC01260C
:1028C000FFF7C2FBFFF714FDFFF79EFB94F94400EE
:1028D000401C01D184F8449094F94500401C01D17A
:1028E00084F84590FFF7B0FB04A9684600F046F86D
:1028F0000028204612D0FFF777FA00F021FA204690
:10290000FFF740FA0028A9D09DB3FFF77DFB606A6E
:1029100050B3206B0068C0F1070126E0FFF732FAE0
:10292000E0B1206838B9FFF76FFB606800F084F908
:102930000546FFF789FB04F124000499FFF736FCF4
:102940002046FFF751FA00F0FBF9002886D1C8F8BD
:102950000070BFF34F8FBFF36F8F7FE72046FFF705
:1029600043FA00F0EDF979E700216068FFF736FCE3
:102970009FE7FFE700208CE704ED00E02DE9F04140
:102980000C46050011D0C4B1FFF73EFB174B5A6946
:102990006E682068911B471C17D02F689B6A9F4266
:1029A00019D0964217D8012410E0502080F31188E6
:1029B000BFF34F8FBFF36F8FFEE7502080F3118876
:1029C000BFF34F8FBFF36F8FFEE70024FFF73CFB91
:1029D0002046BDE8F081884205D9401A206028468B
:1029E000FFF7D6FBF1E700202060DCE72C00002099
:1029F0002DE9FF5F8346DDE90E87994616468A4634
:102A00009000FFF727FA05001CD05420FFF722FAA8
:102A1000040014D00020256384F85100CDE9024061
:102A2000CDE900874B46324651465846FFF73CF900
:102A30002046FFF701F8012004B0BDE8F09F2846CA
:102A4000FFF716FB4FF0FF30F6E7F0B585B0DDE994
:102A50000B640A9DA6B1DCB15427009726630226B9
:102A600084F85160002604AFCDE90246CDE9005755
:102A7000FFF71AF92046FEF7DFFF049805B0F0BD16
:102A8000502080F31188BFF34F8FBFF36F8FFEE7A5
:102A9000502080F31188BFF34F8FBFF36F8FFEE795
:102AA0000548C16919B1806B18B100207047012039
:102AB00070470220704700002C0000200148406948
:102AC000704700002C00002010B5FFF711FB0148F3
:102AD000406910BD2C0000202DE9F0412E4C00274C
:102AE000A06B40B1206A401C2062606A00B10127DF
:102AF0003846BDE8F0816669761C666113D160686E
:102B0000006838B1502080F31188BFF34F8FBFF3B6
:102B10006F8FFEE76068A1686160A060A06A401CDA
:102B2000A062FFF73DF9206BDFF87080864209D381
:102B30006068006880B16068C068C568686886427F
:102B40000DD220632068C06A00EB800158F8210094
:102B50000128CAD90127C8E74FF0FF30F1E7281D47
:102B6000FFF702FAA86A18B105F11800FFF7FCF99F
:102B7000E86A0121A26981401143A16100EB800153
:102B800008EB8100291DFFF733FAE86A2168C96A5A
:102B90008842CDD30127CBE72C0000206C03002016
:102BA00070B504004FF0000140D0214D28688442E8
:102BB00007D0502080F31188BFF34F8FBFF36F8F82
:102BC000FEE7A06C38B1401EA064636CE26A9A42D2
:102BD0002CD040B12AE0502080F31188BFF34F8FF2
:102BE000BFF36F8FFEE7201DFFF7BEF9114A0121E9
:102BF00050B9E06A00EB800352F8233023B9AB6987
:102C000001FA00F08343AB61606CE062C0F1070041
:102C1000A061E06AAB6981401943A96100EB8000C3
:102C200002EB8000211DFFF7E3F90121084670BD8A
:102C30002C0000206C03002070B504004FF0000051
:102C400038D0204DE16A2A68D26A914233D2A06915
:102C5000002804DB2868C06AC0F10700A0611A4E92
:102C600001EB8101606906EB810188421ED1201DC4
:102C7000FFF77AF9012150B9E06A00EB800256F8BB
:102C8000222022B9AA6901FA00F08243AA612868C9
:102C9000C06AE062AA6981401143A96100EB80002B
:102CA00006EB8000211DFFF7A3F902E02868C06A47
:102CB000E062012070BD616C2A68D26A9142F8D34B
:102CC00070BD00002C0000206C0300202DE9F041B5
:102CD000C068C468ACB104F118000746FFF744F9B6
:102CE000154DA86B0126A0B139461448FFF780F9AD
:102CF000E06A2968C96A88421CD901206E62BDE871
:102D0000F081502080F31188BFF34F8FBFF36F8F96
:102D1000FEE7201DFFF728F9E16AAA6906FA01F02B
:102D20001043A86101EB81000449B43901EB800034
:102D3000211DDBE70020E2E72C000020200400201A
:102D40002DE9F0472C4D00242746A86B38B1FFF73A
:102D50005BF9A86B401EA863A86B40B146E0502009
:102D600080F31188BFF34F8FBFF36F8FFEE72969A0
:102D7000224E0120D1B3A6F1B40980463068E8B1F3
:102D8000F068C46804F11800FFF7EEF8201DFFF7A3
:102D9000EBF8E06AAA6908FA00F11143A96100EBB7
:102DA000800109EB8100211DFFF722F9E06A296803
:102DB000C96A8842E2D3C5F82480DFE70CB1FEF788
:102DC000EFFF2C6A44B14646FFF786FE00B16E6203
:102DD000641EF9D100202862686A38B108490127C9
:102DE00038070860BFF34F8FBFF36F8FFFF72CF9E1
:102DF0003846BDE8F08700002C00002020040020A9
:102E000004ED00E0702E0008F91300080000000037
:102E10000000000080000000000000000000000032
:102E20007C2E0008B1140008000000000000000023
:102E3000800000000000000000000000882E000854
:102E4000D512000801000000000000008000000012
:102E50000000000000000000000000000000000072
:102E60000102030406070809000000000102030430
:102E70004E6F726D616C5461736B31004E6F726D89
:102E8000616C5461736B320041626F76654E6F7294
:102E90006D616C5461736B00B82E00080000002057
:102EA0008C00000028010008442F00088C0000203E
:102EB000341600004401000800000000000000007B
:102EC0000000000000000000000000000000000002
:102ED00000000000010000001000000000000000E1
:102EE0000024F400000000000000000000000000CA
:102EF00000000000000000000000000000000000D2
:102F000000000000000000000000000000000000C1
:102F100000000000000000000000000000000000B1
:102F200000000000000000000000000000000000A1
:102F3000000000000000000000000000AAAAAAAAE9
:042F4000000000008D
:04000005080000ED02
:00000001FF
